{
  "contractName": "Betting",
  "abi": [
    {
      "anonymous": false,
      "inputs": [
        {
          "indexed": false,
          "internalType": "bool",
          "name": "_result",
          "type": "bool"
        },
        {
          "indexed": false,
          "internalType": "uint256",
          "name": "_amount",
          "type": "uint256"
        },
        {
          "indexed": false,
          "internalType": "uint256",
          "name": "_winNum",
          "type": "uint256"
        }
      ],
      "name": "Won",
      "type": "event"
    },
    {
      "inputs": [],
      "name": "kill",
      "outputs": [],
      "stateMutability": "nonpayable",
      "type": "function"
    },
    {
      "stateMutability": "payable",
      "type": "receive",
      "payable": true
    },
    {
      "inputs": [
        {
          "internalType": "uint256",
          "name": "_minBet",
          "type": "uint256"
        },
        {
          "internalType": "uint256",
          "name": "_winRate",
          "type": "uint256"
        }
      ],
      "name": "betting",
      "outputs": [],
      "stateMutability": "payable",
      "type": "function",
      "payable": true
    },
    {
      "inputs": [
        {
          "internalType": "uint256",
          "name": "_num",
          "type": "uint256"
        }
      ],
      "name": "bet",
      "outputs": [],
      "stateMutability": "payable",
      "type": "function",
      "payable": true
    },
    {
      "inputs": [],
      "name": "getBalance",
      "outputs": [
        {
          "internalType": "uint256",
          "name": "",
          "type": "uint256"
        }
      ],
      "stateMutability": "view",
      "type": "function",
      "constant": true
    },
    {
      "inputs": [],
      "name": "random",
      "outputs": [
        {
          "internalType": "uint256",
          "name": "",
          "type": "uint256"
        }
      ],
      "stateMutability": "view",
      "type": "function",
      "constant": true
    }
  ],
  "bytecode": "0x608060405234801561001057600080fd5b50336000806101000a81548173ffffffffffffffffffffffffffffffffffffffff021916908373ffffffffffffffffffffffffffffffffffffffff160217905550610739806100606000396000f3fe60806040526004361061004e5760003560e01c806312065fe01461005a57806338bd71ac1461008557806341c0e1b5146100a15780635ec01e4d146100b85780637365870b146100e357610055565b3661005557005b600080fd5b34801561006657600080fd5b5061006f6100ff565b60405161007c91906103b4565b60405180910390f35b61009f600480360381019061009a9190610400565b610160565b005b3480156100ad57600080fd5b506100b661018d565b005b3480156100c457600080fd5b506100cd61021e565b6040516100da91906103b4565b60405180910390f35b6100fd60048036038101906100f89190610440565b61026b565b005b60008060009054906101000a900473ffffffffffffffffffffffffffffffffffffffff1673ffffffffffffffffffffffffffffffffffffffff163373ffffffffffffffffffffffffffffffffffffffff161461015a57600080fd5b47905090565b6000821161016d57600080fd5b606481111561017b57600080fd5b81600181905550806002819055505050565b60008054906101000a900473ffffffffffffffffffffffffffffffffffffffff1673ffffffffffffffffffffffffffffffffffffffff163373ffffffffffffffffffffffffffffffffffffffff16146101e557600080fd5b60008054906101000a900473ffffffffffffffffffffffffffffffffffffffff1673ffffffffffffffffffffffffffffffffffffffff16ff5b6000600160054443426040516020016102399392919061048e565b6040516020818303038152906040528051906020012060001c61025c91906104fa565b610266919061055a565b905090565b60008111801561027c575060058111155b61028557600080fd5b60015434101561029457600080fd5b600061029e61021e565b905080820361035a576000600a60025460646102ba919061058e565b346102c591906105c2565b6102cf9190610604565b90503373ffffffffffffffffffffffffffffffffffffffff166108fc829081150290604051600060405180830381858888f19350505050158015610317573d6000803e3d6000fd5b507fbcf16211ceafe4b6c67cb427bd763bb50b8275f097d5bc529e254175d5ba90016001828460405161034c93929190610650565b60405180910390a150610397565b7fbcf16211ceafe4b6c67cb427bd763bb50b8275f097d5bc529e254175d5ba90016000808360405161038e939291906106cc565b60405180910390a15b5050565b6000819050919050565b6103ae8161039b565b82525050565b60006020820190506103c960008301846103a5565b92915050565b600080fd5b6103dd8161039b565b81146103e857600080fd5b50565b6000813590506103fa816103d4565b92915050565b60008060408385031215610417576104166103cf565b5b6000610425858286016103eb565b9250506020610436858286016103eb565b9150509250929050565b600060208284031215610456576104556103cf565b5b6000610464848285016103eb565b91505092915050565b6000819050919050565b6104886104838261039b565b61046d565b82525050565b600061049a8286610477565b6020820191506104aa8285610477565b6020820191506104ba8284610477565b602082019150819050949350505050565b7f4e487b7100000000000000000000000000000000000000000000000000000000600052601260045260246000fd5b60006105058261039b565b91506105108361039b565b9250826105205761051f6104cb565b5b828206905092915050565b7f4e487b7100000000000000000000000000000000000000000000000000000000600052601160045260246000fd5b60006105658261039b565b91506105708361039b565b92508282019050808211156105885761058761052b565b5b92915050565b60006105998261039b565b91506105a48361039b565b92508282039050818111156105bc576105bb61052b565b5b92915050565b60006105cd8261039b565b91506105d88361039b565b92508282026105e68161039b565b915082820484148315176105fd576105fc61052b565b5b5092915050565b600061060f8261039b565b915061061a8361039b565b92508261062a576106296104cb565b5b828204905092915050565b60008115159050919050565b61064a81610635565b82525050565b60006060820190506106656000830186610641565b61067260208301856103a5565b61067f60408301846103a5565b949350505050565b6000819050919050565b6000819050919050565b60006106b66106b16106ac84610687565b610691565b61039b565b9050919050565b6106c68161069b565b82525050565b60006060820190506106e16000830186610641565b6106ee60208301856106bd565b6106fb60408301846103a5565b94935050505056fea2646970667358221220eae2b160be8dc7f4a4d07b855440c969f7b88b22c6798b459498d174749ac7c964736f6c63430008110033",
  "immutableReferences": {},
  "source": "// SPDX-License-Identifier: MIT\npragma solidity >=0.4.22 <0.9.0;\n\ncontract Ownable {\n  address payable owner;\n  constructor() {\n    owner = payable(msg.sender);\n  }\n\n  modifier Owned {\n    require(msg.sender == owner);\n    _;\n  }\n}\n\ncontract Mortal is Ownable {\n  function kill() public Owned { \n    selfdestruct(owner);\n  }\n}\n\n\ncontract Betting is Mortal {\n  uint minBet; //  \n  uint winRate; //  (%)\n\n  event Won(bool _result, uint _amount, uint _winNum);\n\n  function betting(uint _minBet, uint _winRate) payable public {\n    require(_minBet > 0);\n    require(_winRate <= 100);\n    minBet = _minBet;\n    winRate = _winRate;\n  }\n\n  receive() external payable{}\n\n  function bet(uint _num) payable public {\n    require(_num > 0 && _num <= 5);\n    require(msg.value >= minBet);\n\n    uint winNum = random();\n    if (_num == winNum) {\n      uint amtWon = msg.value * (100 - winRate)/10;\n      payable(msg.sender).transfer(amtWon);\n      emit Won(true, amtWon, winNum);\n    } else {\n      emit Won(false, 0, winNum);\n    }\n  }\n\n  function getBalance() Owned public view returns(uint) {\n    return address(this).balance;\n  }\n\n  function random() public view returns (uint) {\n  \treturn uint(keccak256(abi.encodePacked(block.difficulty, block.number, block.timestamp))) % 5 + 1;\n  }\n}\n\n",
  "sourcePath": "/home/huketo/Betting-Dapp/contracts/Betting.sol",
  "compiler": {
    "name": "solc",
    "version": "0.8.17+commit.8df45f5f.Emscripten.clang"
  },
  "schemaVersion": "3.4.10",
  "updatedAt": "2022-10-17T09:05:24.995Z",
  "networkType": "ethereum",
  "devdoc": {
    "kind": "dev",
    "methods": {},
    "version": 1
  },
  "userdoc": {
    "kind": "user",
    "methods": {},
    "version": 1
  }
}