{
  "contractName": "Mortal",
  "abi": [
    {
      "inputs": [],
      "name": "kill",
      "outputs": [],
      "stateMutability": "nonpayable",
      "type": "function"
    }
  ],
  "bytecode": "0x608060405234801561001057600080fd5b50336000806101000a81548173ffffffffffffffffffffffffffffffffffffffff021916908373ffffffffffffffffffffffffffffffffffffffff16021790555060fb8061005f6000396000f3fe6080604052348015600f57600080fd5b506004361060285760003560e01c806341c0e1b514602d575b600080fd5b60336035565b005b60008054906101000a900473ffffffffffffffffffffffffffffffffffffffff1673ffffffffffffffffffffffffffffffffffffffff163373ffffffffffffffffffffffffffffffffffffffff1614608c57600080fd5b60008054906101000a900473ffffffffffffffffffffffffffffffffffffffff1673ffffffffffffffffffffffffffffffffffffffff16fffea264697066735822122010ee13f0276c3b602aab732b5e09092c04cf3d345ef8227ce01f7bee9869c41264736f6c63430008110033",
  "immutableReferences": {},
  "source": "// SPDX-License-Identifier: MIT\npragma solidity >=0.4.22 <0.9.0;\n\ncontract Ownable {\n  address payable owner;\n  constructor() {\n    owner = payable(msg.sender);\n  }\n\n  modifier Owned {\n    require(msg.sender == owner);\n    _;\n  }\n}\n\ncontract Mortal is Ownable {\n  function kill() public Owned { \n    selfdestruct(owner);\n  }\n}\n\n\ncontract Betting is Mortal {\n  uint minBet; // 최소 베팅액\n  uint winRate; // 배당률 (%)\n\n  event Won(bool _result, uint _amount, uint _winNum);\n\n  function betting(uint _minBet, uint _winRate) payable public {\n    require(_minBet > 0);\n    require(_winRate <= 100);\n    minBet = _minBet;\n    winRate = _winRate;\n  }\n\n  receive() external payable{}\n\n  function bet(uint _num) payable public {\n    require(_num > 0 && _num <= 5);\n    require(msg.value >= minBet);\n\n    uint winNum = random();\n    if (_num == winNum) {\n      uint amtWon = msg.value * (100 - winRate)/10;\n      payable(msg.sender).transfer(amtWon);\n      emit Won(true, amtWon, winNum);\n    } else {\n      emit Won(false, 0, winNum);\n    }\n  }\n\n  function getBalance() Owned public view returns(uint) {\n    return address(this).balance;\n  }\n\n  function random() public view returns (uint) {\n  \treturn uint(keccak256(abi.encodePacked(block.difficulty, block.number, block.timestamp))) % 5 + 1;\n  }\n}\n\n",
  "sourcePath": "/home/huketo/Betting-Dapp/contracts/Betting.sol",
  "compiler": {
    "name": "solc",
    "version": "0.8.17+commit.8df45f5f.Emscripten.clang"
  },
  "schemaVersion": "3.4.10",
  "updatedAt": "2022-10-17T08:15:03.539Z",
  "devdoc": {
    "kind": "dev",
    "methods": {},
    "version": 1
  },
  "userdoc": {
    "kind": "user",
    "methods": {},
    "version": 1
  }
}